:020000040000FA
:020000000D28C9
:040002000034003492
:020008006D2861
:06000A00820728292D29C0
:0A0010002829820799349934F4344A
:06001A0083160313703091
:100020008F000F1D11288312031385018312031300
:100030008701831203179E01831203179F01831602
:100040000313850105158316031387018312031318
:100050000B108B15831603131615831603138112C9
:100060008111011081100111831203130B118B16E2
:1000700083120313901010129012831203130C10AA
:10008000831603130C14831203130B178312031329
:10009000101483160313871683160313653092001A
:1000A000831203130C309700FC20831203138C106F
:1000B00083120313013092001215831203138C1C58
:1000C0005F2883160313871269208B1767280000A7
:1000D00067280F30F900FB011929F000030EF10029
:1000E0000A08F200831203130B188B2083120313E8
:1000F0008B1E7C280B19B520831603130C1C842837
:10010000831203130C18CB2072088A00710E83002F
:10011000F00E700E09008F207B1CA428B0288312DB
:1001200003130508831603131611831203130B1010
:10013000FB149930FA000800FB10831203130B1014
:100140008316031316150800831203130B107B1478
:10015000831203138514FC01FF30F300E320080031
:100160007B108312031385101929831203130B11BB
:10017000740303194E30F400831203137502031C39
:10018000071103180715831203137602031C871047
:10019000031887140800831203130C10F9030319C2
:1001A000DC20FB1CD628FA0303199C207B1CDB28CF
:1001B000F8030319E32008008312031301308506B6
:1001C0000F30F9000800FC0A7C08023C031CE928F7
:1001D000ED28FC01730BED28B02805207C080920D0
:1001E000F80008008312031365309500080083129D
:1001F000031332309500080083120313003095007A
:1002000008000830F5007B1508000630F5007B116A
:1002100008000830F600FB1508000630F600FB1158
:100220000800831203130717080083120313071330
:100230000800FC2005210D2115210800FC200121CA
:10024000092115210800FC200121092111210800A4
:10025000FC2005210D2111210800F22005210D218E
:1002600011210800F72005210D2111210800F2209D
:1002700001210D2111210800F72001210D2111215B
:100280000800FC2001210D2111210800F220052188
:10029000092111210800F720052109211121080059
:1002A000FC200521092111210800831203130230CB
:0402B00087060800B5
:02400E00C43FAD
:00000001FF
