:020000040000FA
:020000002628B0
:040002000034003492
:020008008F283F
:06000A008207B7349934AF
:100010009934993499349934993499349934993478
:1000200082075C34993499349934993499349934E9
:100030009934993499348207003465340034653436
:0C0040000034653400346534003465344D
:04004C008316031301
:1000500070308F000F1D2A2883120313850183122D
:1000600003138701831203179E01831203179F0155
:100070008316031385010515831603138701831265
:1000800003130B108B158316031316158316031316
:1000900081128111011081100111831203130B11C0
:1000A0008B168312031390101012901283120313F5
:1000B0000C10831603130C14831203130B178312F3
:1000C0000313101483160313871683160313653066
:1000D0009200831203130C30970083120313003035
:1000E0009500831203138C108312031301309200C6
:1000F0001215831203138C1C7B288316031387129B
:1001000085208B178328000083280F30F8000030EB
:100110000520F40000301020F70014210800F00042
:10012000030EF1000A08F200831203130B18AD202E
:10013000831203138B1E9E280B19DF2083160313D3
:100140000C1CA628831203130C18EE2072088A00D8
:10015000710E8300F00E700E0900B1207A1CC628C3
:10016000D328831203130508831603131611831271
:1001700003130B10FA149930F9000800FA108312D7
:1001800003130B10831603131615080083120313B1
:100190000B107A14831203138514831203130717A9
:1001A000FB01FC0108007A108312031385108312EF
:1001B000031307130030FD002121142108008312CE
:1001C00003130B11730303194E30F300831203134F
:1001D0007502031C07110318071508008312031387
:1001E0000C10F80303190221FA1CF928F90303196A
:1001F000BE207A1C0129F40303190921F70B031906
:100200001821080083120313013085060F30F8000F
:100210000800FB0A7B080520F4007A1D1029142928
:100220000830F5007A1508000630F5007A1108004C
:10023000FC0A7C081020F7007C081B20FD0021210F
:100240000800831203130712831203137D0895001D
:0C02500008008312031302308706080028
:02400E00C43FAD
:00000001FF
