:020000040000FA
:020000002128B5
:040002000034003492
:0200080081284D
:06000A00820731293629AE
:100010003B29452940293B2954294F294A2963294D
:100020005E2959292C2982075C345C34F4345C3411
:100030005C345C345C345C345C345C345C345C3440
:020040005C342E
:0E0042008316031370308F000F1D25288312C4
:1000500003138501831203138701831203179E0183
:10006000831203179F018316031385010515831659
:1000700003138701831203130B108B1583160313CD
:1000800016158316031381128111011081100111BD
:10009000831203130B118B1683120313901010128B
:1000A0009012831203130C10831603130C14831283
:1000B00003130B17831203131014831603138716ED
:1000C0008316031365309200831203130C309700DC
:1000D0000F21831203138C1083120313013092003B
:1000E0001215831203138C1C7328831603138712B3
:1000F0007D208B177B2800007B280F30F900FB0147
:100100002C29F000030EF1000A08F20083120313F9
:100110000B189F20831203138B1E90280B19C820E5
:10012000831603130C1C9828831203130C18DE206B
:1001300072088A00710E8300F00E700E0900A32071
:100140007B1CB828C32883120313050883160313E6
:100150001611831203130B10FB149930FA000800D8
:10016000FB10831203130B108316031316150800DC
:10017000831203130B107B14831203138514FC01E9
:100180000430F30008007B108312031385102C2920
:10019000831203130B11740303194E30F4008312FE
:1001A00003137502031C07110318071583120313A9
:1001B0007602031C871003188714080083120313A8
:1001C0000C10F9030319EF20FB1CE928FA030319AB
:1001D000B0207B1CEE28F8030319F62008008312D8
:1001E0000313013085060F30F9000800FC0A7C0873
:1001F0000C3C031CFC280029FC01730B0029C328BC
:1002000005207C081320F8000800831203136530D2
:100210009500080083120313323095000800831202
:1002200003130030950008000830F5007B15080026
:100230000630F5007B1108000830F600FB150800B9
:100240000630F600FB11080083120313071708009D
:1002500083120313071308000F21182120212821DE
:1002600008000F2114211C21282108000F2114212E
:100270001C21242108000F211821202124210800FD
:10028000052118212021242108000A2118212021DC
:1002900024210800052114212021242108000A21FD
:1002A00014212021242108000F21142120212421A0
:1002B0000800052118211C21242108000A211821E9
:1002C0001C21242108000F2118211C2124210800B1
:0A02D00083120313023087060800B2
:02400E00C43FAD
:00000001FF
